:020000040800F2
:1000000000500020714900086D0300086F030008CC
:100010007103000873030008750300080000000066
:10002000000000000000000000000000770300084E
:1000300079030008000000007B0300087D0300082E
:10004000B9490008B9490008B9490008B949000888
:10005000B9490008B9490008B9490008B949000878
:10006000B9490008B9490008B9490008B949000868
:10007000B9490008B9490008B9490008B949000858
:10008000B9490008B9490008B9490008B949000848
:1000900085030008B9490008B9490008B9490008B2
:1000A000B9490008B9490008B9490008B949000828
:1000B000B9490008B9490008B9490008B949000818
:1000C000B9490008B9490008B9490008B949000808
:1000D000B9490008B9490008B9490008B9490008F8
:1000E000B9490008B9490008B949000800000000F2
:1000F0000000000000000000000000000000000000
:0C01000000000000000000005FF808F1A3
:10010C0010B5054C237833B9044B13B10448AFF345
:10011C0000800123237010BDE001002000000000CE
:10012C00945A000808B5034B1BB103490348AFF3BD
:10013C00008008BD00000000E4010020945A000873
:10014C0008B5623818282CD8DFE800F0222B131FD2
:10015C002B2B2B0D2B2B2B2B2B2B2B2B162B1C2B25
:10016C002B192B2B280003F0F5F9104B00221A70D9
:10017C0008BD03F05BFAF8E704F0A2FAF5E704F027
:10018C00CFFAF2E704F03CFAEFE704F0FBFAECE705
:10019C0020220021064804F0A3FBE6E703F07EFAD8
:1001AC00E3E7044804F0B6FCDFE700BFFC030020E3
:1001BC00FC010020AC5A000872B6FEE708B5284ACC
:1001CC00136823F0070343F002031360244B1B68EE
:1001DC0003F00703022BF9D1224A136843F480334E
:1001EC001360204B1B6813F4003FFAD01D4A536870
:1001FC0023F47C1343F4E8135360136843F08073C7
:10020C001360184B1B6813F0007FFAD0154B5A681B
:10021C0022F0F0025A605A6822F4E06242F48062E2
:10022C005A605A6822F460525A605A6822F00302EB
:10023C0042F002025A600B4B5B6803F00C03082B74
:10024C00F9D1094800F01CF90F2000F041F928B948
:10025C00044A536823F48003536008BDFFF7ACFFD6
:10026C00002002400010024000A24A0408B500F031
:10027C0055F9FFF7A3FF00F01DF800F0F1F90A2083
:10028C0000F070F9084804F045FC0BE000BF0133A6
:10029C00064A9342FADD064B187808B1FFF750FF77
:1002AC0004F030FB0023F3E7BC5A0008F5FF09000B
:1002BC00FC03002010B58AB000230893099303F1C6
:1002CC00804303F504339A6942F010029A619A69EB
:1002DC0002F010020492049A9A6942F020029A6188
:1002EC009A6902F020020392039A9A6942F004027E
:1002FC009A619A6902F004020292029A9A6942F097
:10030C0008029A619B6903F008030193019B0F4853
:10031C004FF4005343610E4B0593012306930223C4
:10032C00079305A900F031F80A4B059304240694B1
:10033C0005A9094800F029F86FF07B430593069452
:10034C0005A9064800F021F80AB010BD00100140C4
:10035C0020002004FFFF870400080140000C01402E
:10036C00FEE7FEE7FEE7FEE7FEE7704770477047E3
:10037C0008B500F0E5F808BD08B5024801F0EEF844
:10038C0008BD00BF040B00207047F0B50E68C6F323
:10039C000F2696FAA6F5B5FA85F540E0A5F1080208
:1003AC004FF00113934043F0806344E00C69C7683D
:1003BC001A0A27EA020792FAA2F2B2FA82F204FAB5
:1003CC0002F23A43C26039E08C6893FAA3F7B7FAA9
:1003DC0087F7BF004FF0030E0EFA07F722EA070269
:1003EC0093FAA3F7B7FA87F7BF00BC40224340F853
:1003FC000C20CC6893FAA3F7B7FA87F7BF004FF03D
:10040C00040E0EFA07F722EA070293FAA3F3B3FAE3
:10041C0083F39B009C40224340F80C20013536FAB4
:10042C0005F32BD00123AB403342F7D0072DB5D8C1
:10043C0040F20113AB404A68082AB7D04F684FEA24
:10044C00136C50F80C4093FAA3F2B2FA82F29200B9
:10045C004FF00F0E0EFA02F224EA020493FAA3F202
:10046C00B2FA82F2920007FA02F2224340F80C2010
:10047C004C68012CA8D0092CD0D1A5E70020F0BDE8
:10048C00014B1860704700BF0000002082B00E4B7B
:10049C009A6942F001029A619A6902F00102009293
:1004AC00009ADA6942F08052DA61DB6903F080531A
:1004BC000193019B054A536823F0E06343F00073FA
:1004CC00536002B0704700BF0010024000000140B2
:1004DC0010B504460E4B18784FF47A73B3FBF0F357
:1004EC000C4A1068B0FBF3F000F0A4F868B90F2CBC
:1004FC0001D901200AE0002221464FF0FF3000F024
:10050C0057F8054B1C60002000E0012010BD00BF17
:10051C0004000020000000200800002008B5074A55
:10052C00136843F010031360032000F02FF80F2022
:10053C00FFF7CEFFFFF7AAFF002008BD0020024006
:10054C00034A1168034B1B780B441360704700BFC0
:10055C003C06002004000020014B1868704700BFC7
:10056C003C06002038B50446FFF7F6FF0546B4F10B
:10057C00FF3F02D0044B1B781C44FFF7EDFF401BE0
:10058C00A042FAD338BD00BF04000020074AD3684C
:10059C0023F4E0631B041B0C000200F4E06018431E
:1005AC0040F0BF6040F40030D060704700ED00E0D8
:1005BC0030B4174BDB68C3F30223C3F10704042CDC
:1005CC0028BF04241D1D062D01D9033B00E0002388
:1005DC004FF0FF3505FA04F421EA0401994005FABD
:1005EC0003F322EA03031943002809DB0901C9B20A
:1005FC0000F1604000F5614080F8001330BC70479A
:10060C0000F00F000901C9B2024B1954F6E700BF04
:10061C0000ED00E014ED00E0002807DB00F01F0205
:10062C00400901239340024A42F82030704700BF32
:10063C0000E100E00138B0F1807F0AD2064B58602F
:10064C00064AF02182F823100020986007221A60D5
:10065C0070470120704700BF10E000E000ED00E0A3
:10066C0008B500220F49104802F0ACF870B90F49D8
:10067C000D4802F0BEF860B90D490B4802F023FF9B
:10068C0050B9094802F0BCF848B908BDFFF794FD11
:10069C00EDE7FFF791FDEFE7FFF78EFDF1E7FFF7D1
:1006AC008BFDF2E70C000020400600206C000020BF
:1006BC005C00002012230B800048704728000020AB
:1006CC0004230B80004870473C0000200023934219
:1006DC0016D230B40BE0373401F8134000015C0043
:1006EC00013400250D550133DBB2934206D2040FC1
:1006FC00092CF0D8303401F81340EFE730BC7047C8
:10070C007047000038B50A4B186804331C68043372
:10071C001B68C01800D138BD064D0822A91CFFF774
:10072C00D5FF042205F112012046FFF7CFFFF2E7B7
:10073C00E8F7FF1F4000002008B51A230B80FFF7D5
:10074C00E1FF014808BD00BF4000002008B50A4683
:10075C0028B90549054802F0C9FC034808BD0249FF
:10076C00024802F0C3FCF8E704090020F45A000820
:10077C0010B5044C0A462146034802F0B7FC20464B
:10078C0010BD00BF04090020E45A000808B50A4651
:10079C0028B90549054802F0A9FC034808BD0249DF
:1007AC00024802F0A3FCF8E704090020C85A00082C
:1007BC0008B50A4628B90549054802F097FC0348D4
:1007CC0008BD0249024802F091FCF8E70409002038
:1007DC00D45A0008022807D8DFE800F0020604000B
:1007EC0000207047012070470220704702680E4BB2
:1007FC009A4200D0704700B583B003F5DA33DA695A
:10080C0042F40002DA61DB6903F400030193019BFB
:10081C00002211461420FFF7CBFE1420FFF7FCFE3C
:10082C0003B05DF804FB00BF005C004008B500F5A8
:10083C002C71D0F8EC0201F0FCFF08BD08B501EBFF
:10084C008102D3000344D3F87C21D0F8EC0202F0EF
:10085C001EF808BD08B501EB8102D3000344DA6B26
:10086C00D0F8EC0202F05DF808BD08B5D0F8EC0247
:10087C0002F000F908BD10B504468368022B09D1BB
:10088C000121D4F8EC0202F0DEF8D4F8EC0202F00C
:10089C00B2F810BDFFF790FCF2E7000010B504466B
:1008AC00D0F8EC0202F0D2F8A36923B1024A136922
:1008BC0043F00603136110BD00ED00E008B5D0F85D
:1008CC00EC0202F0CCF808BD10B504461D48C0F887
:1008DC00EC42C4F8C0021C4B0360082343600223A3
:1008EC00836000238361C361036200F01EF930BB97
:1008FC00182300221146D4F8C00201F025F8582321
:10090C0000228021D4F8C00201F01EF8C02300227E
:10091C008121D4F8C00201F017F84FF4887300223B
:10092C000121D4F8C00201F00FF84FF480730022BB
:10093C008221D4F8C00201F007F8002010BDFFF7A7
:10094C003BFCD5E7040B0020005C004008B5D0F858
:10095C00C00200F06AF9FFF73DFF08BD10B51C4658
:10096C0013462246D0F8C00200F0CDFEFFF732FF4E
:10097C0010BD08B5D0F8C00200F0FCFEFFF72AFF4E
:10098C0008BD08B5D0F8C00200F069FFFFF722FFE0
:10099C0008BD08B5D0F8C00200F09CFFFFF71AFFA5
:1009AC0008BDD0F8C03211F0800F08D101F07F01E2
:1009BC0001EB8101CA00134493F86A01704701F0FE
:1009CC007F01013101EB8101CA0013449878704713
:1009DC0008B5D0F8C00200F0ADFDFFF7FBFE08BD76
:1009EC0008B5D0F8C00200F01AFFFFF7F3FE08BDFF
:1009FC0008B5D0F8C00200F0EEFEFFF7EBFE08BD24
:100A0C0008B5D0F8C00200F001FF08BD00487047DF
:100A1C00000400207047704770B512F4804F42D02C
:100A2C000468B4F850300D7803EBC503023304EBC3
:100A3C004303B3F80044C4F309048B69A34228D3DD
:100A4C001B1B8B618B697BB9066836F825309BB212
:100A5C0023F4804323F0700383F4005343F40043E6
:100A6C0043F0800326F8253012F0400F0ED00268B8
:100A7C000D7832F825309BB223F4E04323F0700359
:100A8C0043F4004343F0C00322F8253024B9204638
:100A9C0070BD00238B61D5E723460A89496900683C
:100AAC0001F079FEF3E70468B4F850300D7803EBED
:100ABC00C503063304EB4303B3F80044C4F3090441
:100ACC008B69A3422ED31B1B8B618B697BB9066888
:100ADC0036F825309BB223F4804323F0700383F463
:100AEC00005343F4004343F0800326F8253012F002
:100AFC00400F0ED102680D7832F825309BB223F4EA
:100B0C00E04323F0700343F4004343F0C00322F8A6
:100B1C002530002CBBD023464A894969006801F076
:100B2C003AFEB4E700238B61CFE7F0B587B000281D
:100B3C0079D0044690F8A932D3B1032384F8A932B2
:100B4C00206800F02FFF254655F8107B6E460FCD20
:100B5C000FC62B683360231D0ECB384600F012FFF6
:100B6C0058B1022384F8A9320125284607B0F0BDFC
:100B7C0080F8A832FFF73AFEDFE70021206800F08A
:100B8C001BFF00236568AB4215D2591C8A0055180F
:100B9C00E8002044012545705518E80023542044F2
:100BAC000025C5709A00D618F00020448563C563F3
:100BBC000564CBB2E6E700239D4216D99800C11814
:100BCC00CA002244002182F8691182F8683182F847
:100BDC006B11C2F87811C2F87C11C218D0002044F5
:100BEC00C0F880110133DBB2E6E7254655F8107BDF
:100BFC006E460FCD0FC62B683360231D0ECB3846C7
:100C0C0000F0DCFE054620B1022384F8A932012550
:100C1C00ABE7002384F82430012384F8A932206840
:100C2C0001F005FAA1E701259FE738B590F8A83245
:100C3C00012B11D00446012580F8A852006800F061
:100C4C00A8FE29462046FFF7E6FE206801F0EDF9E4
:100C5C00002084F8A80238BD0220FCE770B50546D8
:100C6C000C46164612F0400F00F0FB800268B2F8FA
:100C7C005030097803EBC103023302EB4303B3F8A2
:100C8C000024C2F30902A369934245D99B1AA361BC
:100C9C00A369002B5BD16378002B40D12B68B3F890
:100CAC005020134403EB0111B1F80434C3F30903CE
:100CBC00A1F80434B1F8043443F40043A1F804342B
:100CCC002B686278BABBB3F850201344227803EB3C
:100CDC000213B3F80C24C2F30902A3F80C24B3F8E2
:100CEC000C2442F40042A3F80C2421782846FFF788
:100CFC00B1FD16F4804F3FD02A68217832F82130AC
:100D0C009BB223F4E04323F0700343F4404343F0DD
:100D1C00800322F821302FE00023A361B8E7012BD8
:100D2C00CED12B68B3F85020134403EB01110023F0
:100D3C00A1F80434C4E7012AD7D1B3F850201344E6
:100D4C00227803EB02130022A3F80C24CDE716F44F
:100D5C00804F0DD0286830F821309BB223F4E0434B
:100D6C0023F0700343F4404343F0800320F8213018
:100D7C0094F82430012B12D02A68217832F82130D3
:100D8C009BB223F4E04323F0400383F0300343F49D
:100D9C00004343F0800322F82130002070BD6369CA
:100DAC0013446361E3691344E361216A2369994243
:100DBC0022D3C91A21626278002A3ED12A68B2F87D
:100DCC0050100A44217802EB0112B2F80414C1F35A
:100DDC000901A2F804143E2B1AD9590913F01F0F5C
:100DEC0000D10139B2F80404890289B2014341F4FB
:100DFC000041A2F8041422E021B9002384F8243025
:100E0C001346D8E7002384F8243023620B46D2E73C
:100E1C0033B9B2F8041441F40041A2F804140EE002
:100E2C00590813F0010F00D00131B2F80404890203
:100E3C0089B20143A2F8041401E0012A06D09BB246
:100E4C0022896169286801F0F9F895E72A68B2F8F7
:100E5C0050100A44217802EB011299B2A2F8041442
:100E6C00EDE70268B2F85030097803EBC1030633A2
:100E7C0002EB4303B3F80024C2F30902A3699342C3
:100E8C0046D39B1AA361A369002B5CD16378002B1A
:100E9C0041D12B68B3F85020134403EB0111B1F886
:100EAC000434C3F30903A1F80434B1F8043443F453
:100EBC000043A1F804342B686278C2BBB3F850200D
:100ECC001344227803EB0213B3F80C24C2F3090287
:100EDC00A3F80C24B3F80C2442F40042A3F80C241D
:100EEC0021782846FFF7B6FC16F4804F7FF444AF08
:100EFC002A68217832F821309BB223F4E04323F0A6
:100F0C00700343F4404343F0800322F8213033E76D
:100F1C000023A361B7E7012BCDD12B68B3F8502088
:100F2C00134403EB01110023A1F80434C3E7012A95
:100F3C00D6D1B3F850201344227803EB02130022CD
:100F4C00A3F80C24CCE716F4804F0DD1286830F8A8
:100F5C0021309BB223F4E04323F0700343F440436D
:100F6C0043F0800320F8213094F82430012B7FF4D7
:100F7C0003AF636913446361E3691344E361216A5A
:100F8C002369994222D3C91A21622A6861780029FF
:100F9C003DD1B2F850100A44217802EB0112B2F89C
:100FAC000C14C1F30901A2F80C143E2B1AD95909DF
:100FBC0013F01F0F00D10139B2F80C04890289B269
:100FCC00014341F40041A2F80C1422E021B90023A2
:100FDC0084F824301346D8E70023236284F82430A5
:100FEC000B46D2E733B9B2F80C1441F40041A2F825
:100FFC000C140EE0590813F0010F00D00131B2F8B7
:10100C000C04890289B20143A2F80C1401E00129F5
:10101C0006D09BB262896169286801F00FF8ABE6D3
:10102C00B2F850100A44217802EB011299B2A2F8DE
:10103C000C14EEE72DE9F04104462068B0F844307A
:10104C0013F4004F00F07382B0F844309BB213F0ED
:10105C000F0540F0D98013F0100F68D003889BB2B5
:10106C0013F4006F40F0998013F4004FE5D003881F
:10107C0023F070031B051B0D43F0800303802068D5
:10108C00B0F8503094F8682103EBC203063300EB40
:10109C004303B3F80034C3F30903C4F884318BB1B0
:1010AC00D4F87C1171B1B4F86E2101F074FBD4F852
:1010BC008421D4F87C311344C4F87C3100212046BF
:1010CC00FFF7BCFB226813889BB213F4006FB4D1FA
:1010DC0003F44053B3F5405FAFD0B2F850301A442C
:1010EC00B2F80C34C3F30903A2F80C34D4F8781119
:1010FC003E2974D94B0911F01F0F00D1013BB2F8F6
:10110C000C149B029BB20B4343F40043A2F80C3427
:10111C00226813889BB223F4804323F0700383F47A
:10112C00405343F4004343F08003138085E7038866
:10113C009BB223F4E14323F070036FEA43436FEA5D
:10114C0053439BB203802268B2F8503094F82810B5
:10115C0003EBC103023302EB4303B3F80034C3F3D4
:10116C0009036364E26B1344E36300212046FFF739
:10117C0071FB94F82430002B3FF45FAF236C002BF1
:10118C007FF45BAF94F82430226843F08003A2F81C
:10119C004C30002384F824304FE7B0F8503094F8EA
:1011AC00682103EBC203063300EB4303B3F80034AE
:1011BC00C3F30903C4F88431B4F86E2104F52C711F
:1011CC0001F0E9FA2268138823F070031B051B0D4C
:1011DC0043F0800313802046FFF728FB2DE731B93D
:1011EC00B2F80C3443F40043A2F80C3490E74B08EB
:1011FC0011F0010F00D00133B2F80C149B029BB21A
:10120C000B43A2F80C3483E730F82560B6B216F421
:10121C00004F4DD116F0800F3FF40FAF681C8200C9
:10122C001318D9002144276837F825309BB223F4D2
:10123C00E14323F070036FEA43436FEA53439BB2DD
:10124C0027F82530CB78012B00F0EB8016F4807F4B
:10125C0040F068812068B0F850306A1C02EB8202C2
:10126C00D600A25D03EBC203023300EB4303B3F8D9
:10127C000034C3F3090305EB8506F200164622443D
:10128C00126C9A4240F23A812644D21A326405EB2F
:10129C008506F2002244126C002A40F0368101359A
:1012AC0005EB8505EB00E15C2046FFF7D3FAC4E6BD
:1012BC0030F8253023F070031B051B0D43F0800321
:1012CC0020F82530AB005A194FEAC208424608F5FF
:1012DC00B478A044224492F87431002B3FD120689A
:1012EC00B0F8503005EB8501CA001146224492F843
:1012FC00682103EBC203063300EB4303B3F800741D
:10130C00C7F3090717BBAA002A44D3002344D3F818
:10131C0084213A44C3F88421D3F87C213A44C3F89D
:10132C007C21D3F880313BB105EB8502D3002344FB
:10133C00D3F878319F426FD205EB8502D30023445A
:10134C0093F868112046FFF779FA63E721443B468E
:10135C00B1F86E21D1F87C1101F01DFAD3E705EB41
:10136C008502D300234493F86B31022B34D02168CF
:10137C00AB002B44DA00224492F8680131F820309B
:10138C009BB223F4E04323F0700343F4004343F097
:10139C00C00321F82030206892F8682130F8223000
:1013AC0013F4804F1FD0B0F8503003EBC20302335C
:1013BC0000EB4303B3F80074C7F30907002FA2D066
:1013CC00AB002B44D90021443B46B1F87021D1F835
:1013DC007C1101F0E0F996E7324641462046FFF7D2
:1013EC001BFB07468FE7B0F8503003EBC203063304
:1013FC0000EB4303B3F80074C7F30907002F82D046
:10140C00AB002B44D90021443B46B1F87221D1F8F2
:10141C007C1101F0C0F976E74146206800F023FE0C
:10142C00F8E6AA002A44D300234400221A6493F855
:10143C003430D3B116F0400F31D04B78F3B9236868
:10144C00B3F85020134400EB8002D100625C03EB34
:10145C000213B3F80424C2F30902A3F80424B3F86A
:10146C00042442F40042A3F80424013505EB85055D
:10147C00EB00E15C2046FFF7EDF9DEE5012BF4D142
:10148C002368B3F8502013446A1C02EB8202D1008B
:10149C00625C03EB02130022A3F80424E5E7236843
:1014AC006A1C02EB8202D10021444A78B2B9B3F82B
:1014BC00502013446A1C02EB8202D100625C03EBE5
:1014CC000213B3F80C24C2F30902A3F80C24B3F8EA
:1014DC000C2442F40042A3F80C24C6E7012AC4D120
:1014EC00B3F8502013446A1C02EB8202D100625CF8
:1014FC0003EB02130022A3F80C24B6E705EB8506D8
:10150C00F200224400261664C1E6AE007719FA00F8
:10151C002244D76B1F44D763556C2B44536400F0A3
:10152C00A2FD8AE532462046FFF798FB85E50020B0
:10153C00BDE8F08190F8A832012B0DD010B504460F
:10154C00012380F8A83280F82410006800F067FDB1
:10155C00002084F8A80210BD0220704710B584B09A
:10156C000446006800F065FD10F4004F20D110F423
:10157C00806F21D110F4804F2FD110F4005F37D140
:10158C0010F4805F3ED110F4006F40F0868010F4B0
:10159C00007F40F0AB8010F4807F27D02268B2F837
:1015AC0044309BB223F480739BB2A2F844301DE00C
:1015BC002046FFF73FFD19E02268B2F844309BB299
:1015CC0023F480639BB2A2F844302046FFF753F912
:1015DC0000212046FFF7AEFF08E02268B2F8443045
:1015EC009BB223F480439BB2A2F8443004B010BDEC
:1015FC002268B2F844309BB223F400539BB2A2F899
:10160C004430F3E72268B2F840309BB223F0040375
:10161C009BB2A2F840302268B2F840309BB223F063
:10162C0008039BB2A2F840302046FFF747F9226826
:10163C00B2F844309BB223F480539BB2A2F84430EE
:10164C00D4E7226832F8231004AA02EB430222F8F2
:10165C00101C0133DBB2072BF3D92268B2F84030EF
:10166C0043F00103A2F840302268B2F840309BB23C
:10167C0023F001039BB2A2F840302368B3F8442056
:10168C0012F4806FF9D0B3F8442092B222F4806245
:10169C0092B2A3F8442000230BE00023DBE722687E
:1016AC0004A901EB430131F8101C22F8231001337B
:1016BC00DBB2072BF3D92268B2F8403043F00803B1
:1016CC00A2F840302268B2F844309BB223F4006395
:1016DC009BB2A2F844302268B2F8403043F00403C5
:1016EC00A2F840302046FFF7D9F87FE72268B2F81D
:1016FC0044309BB223F400739BB2A2F844302046D2
:10170C00FFF7B3F872E7F8B511F0800F23D101F0B1
:10171C000705AE007719FC00274604F5B4740444A1
:10172C000744002587F8695101F0070121702261F7
:10173C00E370022B19D090F8A832012B18D0054673
:10174C00012380F8A8322146006800F04AF90020F5
:10175C0085F8A802F8BD01F007056E1CB500AF199D
:10176C00FC00044401256570DEE700232371E2E7E9
:10177C000220EFE738B511F0800F20D101F00704FB
:10178C00A2001519EB001D4603F5B47303442C4657
:10179C000444002284F8692101F00701197090F8C3
:1017AC00A822012A15D00446012280F8A822194645
:1017BC00006800F0D4FA002084F8A80238BD01F0CB
:1017CC000702541CA2001519EB00034401225A70A5
:1017DC00E2E70220F2E7F8B501F00706B500AC1914
:1017EC00E1000C4601F5B4710444C4F87C21C4F842
:1017FC0080310027C4F8847184F8697184F86861B9
:10180C000144006800F02FFC3846F8BD01F00701D8
:10181C0001EB8101CB001844D0F884017047F8B576
:10182C0001F007014E1CB500AC194FEAC40C8F0037
:10183C000F44FC000444E2632364012284F84C202E
:10184C00A36400276764634603445A7000F80C10C5
:10185C0000EB0C01006800F006FC3846F8BD38B50A
:10186C0001F0070543689D4230D811F0800F1FD15D
:10187C008A005418E3001C4603F5B4730344224653
:10188C000244002182F8691101229A701D7090F8AF
:10189C00A822012A1CD00446012280F8A82219464D
:1018AC00006800F046FB5DB1002084F8A80238BD4A
:1018BC006C1CA2001119CB00034401225A70E3E7FF
:1018CC0004F52C71206800F0B7FBEDE70120EEE782
:1018DC000220ECE738B501F00F0243689A422FD88A
:1018EC0011F0800F22D101F00704A3001D19EA00AA
:1018FC00154602F5B47202442C460444002384F8C5
:10190C0069310023937001F00703137090F8A8322B
:10191C00012B17D00446012380F8A8321146006829
:10192C0000F02CFB002084F8A80238BD01F007035E
:10193C005C1CA3001D19EA00024401235370E0E76C
:10194C000120F2E70220F0E710B411F0800F0CD068
:10195C0001F00701013101EB8101CC0020445AB99F
:10196C000273C380002010BC704701EB8101CC00D6
:10197C0004F5B4742044F2E70122027303811B0CBA
:10198C004381EFE784B001A880E80E00002004B08A
:10199C0070470023A0F844304FF43F42A0F8402099
:1019AC0018467047B0F8403023F47C535B045B0C52
:1019BC00A0F84030002070470020704784B010B46D
:1019CC0002AC84E80E000123A0F840300023A0F8FC
:1019DC004030A0F84430A0F85030184610BC04B089
:1019EC00704730B403460C7830F8242092B222F4BD
:1019FC00EC4222F0700292B2C87803285AD8DFE881
:101A0C0000F04D550251002048F280052A4323F87E
:101A1C0024200C7833F8242092B222F4E04222F0F5
:101A2C00700222432A4323F824200A7B002A40F028
:101A3C00C4804A78002A4ED0B3F850201A440C784F
:101A4C0002EB0412CC8864086400A2F800440C7801
:101A5C0033F8242012F0400F0CD033F8242092B22B
:101A6C0022F4E04222F0700242F4004242F0C00242
:101A7C0023F82420CA78012A1ED0097833F82120B3
:101A8C0092B222F4E04222F0400282F0200242F4B0
:101A9C00004242F0800223F82120F8E042F4007268
:101AAC000020B1E742F4C0620020ADE742F480624E
:101ABC000020A9E70120A7E7097833F8212092B28A
:101ACC0022F4E04222F0400242F4004242F0800252
:101ADC0023F82120DBE0B3F850201A440C7802EBF9
:101AEC000412CC8864086400A2F80844B3F85020AF
:101AFC001A440C7802EB0412B2F80C44C4F3090437
:101B0C00A2F80C440D693E2D32D96C0915F01F0F4B
:101B1C0000D1013CB2F80C54A402A4B22C4344F4FE
:101B2C000044A2F80C440C7833F8242012F4804FB3
:101B3C000CD033F8242092B222F4E04222F070024E
:101B4C0042F4404242F0800223F82420097821BB61
:101B5C0033F8212092B222F4804222F0700282F4F7
:101B6C00405242F4004242F0800223F821208EE0E1
:101B7C0035B9B2F80C4444F40044A2F80C44D2E752
:101B8C006C0815F0010F00D00134B2F80C54A4020B
:101B9C00A4B22C43A2F80C44C5E733F8212092B22E
:101BAC0022F4804222F0700282F4005242F400428D
:101BBC0042F0800223F8212069E0CA78022A68D01A
:101BCC000C7833F8242092B222F4E24222F0700214
:101BDC0042F4004242F0800223F82420B3F8502053
:101BEC001A440C7802EB04120C8964086400A2F805
:101BFC000044B3F850201A440C7802EB04124C89C0
:101C0C0064086400A2F808444A78002A50D10C7881
:101C1C0033F8242012F4804F0CD033F8242092B2E5
:101C2C0022F4E04222F0700242F4404242F0800280
:101C3C0023F824200C7833F8242012F0400F0CD019
:101C4C0033F8242092B222F4E04222F0700242F4E3
:101C5C00004242F0C00223F824200D7833F82520EE
:101C6C0092B222F4804222F0700282F4405248F286
:101C7C008004224323F82520097833F8212092B2DE
:101C8C0022F4E04222F04002224323F8212030BC0F
:101C9C0070470C7833F8242092B222F4E04222F000
:101CAC00700242F4014242F0800223F8242095E7AE
:101CBC000C7833F8242012F4804F0CD033F8242005
:101CCC0092B222F4E04222F0700242F4404242F01E
:101CDC00800223F824200C7833F8242012F0400FD3
:101CEC000CD033F8242092B222F4E04222F070029D
:101CFC0042F4004242F0C00223F82420CA78012AA0
:101D0C001ED00C7833F8242092B222F4E04222F058
:101D1C00400282F0200242F4004242F0800223F89A
:101D2C002420097833F8212092B222F4804222F048
:101D3C00700242F4004242F0800223F82120A6E710
:101D4C000C7833F8242092B222F4E04222F04002C4
:101D5C0042F4004242F0800223F82420E1E70B7B9E
:101D6C00002B46D14B7813B30A7830F8223013F09D
:101D7C00400F0CD030F822309BB223F4E04323F018
:101D8C00700343F4004343F0C00320F822300A7878
:101D9C0030F822309BB223F4E04323F0400343F4A9
:101DAC00004343F0800320F82230002070470A786B
:101DBC0030F8223013F4804F0CD030F822309BB224
:101DCC0023F4E04323F0700343F4404343F08003D7
:101DDC0020F822300A7830F822309BB223F480436A
:101DEC0023F0700343F4004343F0800320F82230C7
:101DFC00DBE710B44B78002B4ED10A7830F8223048
:101E0C0013F4804F0CD030F822309BB223F4E04313
:101E1C0023F0700343F4404343F0800320F8223056
:101E2C000A7830F8223013F0400F0CD030F8223002
:101E3C009BB223F4E04323F0700343F4004343F0DC
:101E4C00C00320F822300A7830F822309BB223F4F9
:101E5C00E04323F0700343F4004343F0C00320F845
:101E6C0022300B7830F8232092B222F4804222F0F8
:101E7C00700248F28004224320F823200A7830F8BC
:101E8C0022309BB223F4E04323F04003234320F899
:101E9C002230002010BC70470A7830F8223013F43E
:101EAC00804F0CD030F822309BB223F4E04323F067
:101EBC00700343F4404343F0800320F822300A7847
:101ECC0030F8223013F0400F0CD030F822309BB297
:101EDC0023F4E04323F0700343F4004343F0C003C6
:101EEC0020F822300A7830F822309BB223F4E043F9
:101EFC0023F0700343F4404343F0800320F8223076
:101F0C000B7830F8232092B222F4E04222F0400207
:101F1C0048F28004224320F823200A7830F822303B
:101F2C009BB223F4804323F07003234320F8223028
:101F3C00AFE74B788BB10A7830F822309BB223F4A0
:101F4C00E04323F0400383F0100343F4004343F0D9
:101F5C00800320F82230002070470A7830F82230B5
:101F6C009BB223F4804323F0700383F4805343F437
:101F7C00004343F0800320F82230ECE70B7B002B6E
:101F8C004BD14B7833B30A7830F8223013F0400F32
:101F9C000CD030F822309BB223F4E04323F07003D2
:101FAC0043F4004343F0C00320F82230CB78012BDC
:101FBC0033D00A7830F822309BB223F4E04323F07C
:101FCC00400383F0200343F4004343F0800320F8E4
:101FDC00223022E00A7830F8223013F4804F0CD0F3
:101FEC0030F822309BB223F4E04323F0700343F427
:101FFC00404343F0800320F822300A7830F8223036
:10200C009BB223F4804323F0700383F4405343F4D6
:10201C00004343F0800320F822300020704711B9B0
:10202C008023A0F84C30002070470020704700201F
:10203C007047B0F8440070470020704701335B08CC
:10204C0000EB420202F5806263B110B40C78487860
:10205C0044EA002422F8044B0231013B002BF5D159
:10206C0010BC70477047F8B54A78012A39D00B7B01
:10207C00002B40F074828B690A69934240F25682BD
:10208C009B1A8B61B0F8503003440C7803EB0413AB
:10209C00B3F80C44C4F30904A3F80C443E2A40F2F0
:1020AC004982540912F01F0F00D1013CB3F80C54B3
:1020BC00A20292B22A4342F40042A3F80C240A78FA
:1020CC0030F822309BB223F4804323F0700383F466
:1020DC00405343F4004343F0800320F822300020A7
:1020EC00F8BD8E690F69BE4200D93E460C460546C6
:1020FC000B7B63B3CB78022B49D00B6A9B1B0B6217
:10210C000B7830F8231011F0400F00F0CE81002A2C
:10211C0040F0BC81B0F85020024402EB0313B3F83A
:10212C000C24C2F30902A3F80C243E2E40F2998130
:10213C00720916F01F0F00D1013AB3F80C14920279
:10214C0092B20A4342F40042A3F80C24A6E1B6B2C0
:10215C003346CA884969FFF771FFB5F850302B44F4
:10216C00227803EB0213A3F80464227835F82230AA
:10217C009BB223F4E04323F0400383F0300343F499
:10218C00004343F0800325F822300020A8E70B6AB7
:10219C009F4280F04A810A7830F822309BB223F4B7
:1021AC00E04323F0700343F4014343F0800320F831
:1021BC0022300B6A9B1B0B620B7830F8232012F039
:1021CC00400F00F099804A7882BBB0F8502002444E
:1021DC0002EB0313B3F80C24C2F30902A3F80C248A
:1021EC003E2E0ED9720916F01F0F00D1013AB3F82A
:1021FC000C14920292B20A4342F40042A3F80C244B
:10220C0016E036B9B3F80C2442F40042A3F80C24BF
:10221C000EE0720816F0010F00D00132B3F80C1466
:10222C00920292B20A43A3F80C2401E0012A2ED0A8
:10223C00B3B2628961692846FFF700FF63693344D2
:10224C006361236A226993422AD99B1B23626378B8
:10225C00002B3ED1B5F850302B44227803EB0213FF
:10226C00B3F80424C2F30902A3F804243E2E1BD9AC
:10227C00720916F01F0F00D1013AB3F80414920240
:10228C0092B20A4342F40042A3F8042423E0B0F8CB
:10229C005020024402EB0313B2B2A3F80C24C7E79C
:1022AC00002222621E46D2E736B9B3F8042442F467
:1022BC000042A3F804240EE0720816F0010F00D0BF
:1022CC000132B3F80414920292B20A43A3F8042424
:1022DC0001E0012B06D0B3B2228961692846FFF7D1
:1022EC00ADFE42E7B5F850302B44227803EB0213D5
:1022FC00B2B2A3F80424EEE74A7882BBB0F85020BF
:10230C00024402EB0313B3F80424C2F30902A3F84A
:10231C0004243E2E0ED9720916F01F0F00D1013A7B
:10232C00B3F80414920292B20A4342F40042A3F8A6
:10233C00042416E036B9B3F8042442F40042A3F89E
:10234C0004240EE0720816F0010F00D00132B3F82D
:10235C000414920292B20A43A3F8042401E0012A65
:10236C002ED0B3B2228961692846FFF767FE6369F4
:10237C0033446361236A226993422AD99B1B2362EB
:10238C006378002B3ED1B5F850302B44227803EB08
:10239C000213B3F80C24C2F30902A3F80C243E2E4A
:1023AC001BD9720916F01F0F00D1013AB3F80C14A7
:1023BC00920292B20A4342F40042A3F80C2423E0A6
:1023CC00B0F85020024402EB0313B2B2A3F8042479
:1023DC00C7E7002222621E46D2E736B9B3F80C24B6
:1023EC0042F40042A3F80C240EE0720816F0010F20
:1023FC0000D00132B3F80C14920292B20A43A3F843
:10240C000C2401E0012B06D0B3B262896169284625
:10241C00FFF714FEA9E6B5F850302B44227803EBF5
:10242C000213B2B2A3F80C24EEE7097830F821209D
:10243C0092B222F4E24222F0700242F4004242F0E4
:10244C00800220F82120B0F850200244217802EBC1
:10245C0001129BB2A2F8043422896169FFF7EEFDE8
:10246C0083E636B9B3F80C2442F40042A3F80C24EA
:10247C0014E0720816F0010F00D00132B3F80C14FE
:10248C00920292B20A43A3F80C2407E0B0F8502051
:10249C00024402EB0313B2B2A3F80C24B3B2628968
:1024AC0061692846FFF7CAFD5FE682BBB0F8502091
:1024BC00024402EB0313B3F80424C2F30902A3F899
:1024CC0004243E2E0ED9720916F01F0F00D1013ACA
:1024DC00B3F80414920292B20A4342F40042A3F8F5
:1024EC0004241CE036B9B3F8042442F40042A3F8E7
:1024FC00042414E0720816F0010F00D00132B3F876
:10250C000414920292B20A43A3F8042407E0B0F830
:10251C005020024402EB0313B2B2A3F80424B3B26A
:10252C00228961692846FFF789FD1EE600228A612F
:10253C001A46A7E532B9B3F80C2442F40042A3F8CA
:10254C000C24BCE5540812F0010F00D00134B3F890
:10255C000C24A402A4B21443A3F80C44AFE5CB782A
:10256C00022B49D0012B40F014818C690B699C42E1
:10257C0040F2D480E41A8C61E2B9B0F850200244E5
:10258C000C7802EB0412B2F80444C4F30904A2F868
:10259C0004443E2B40F2C6805C0913F01F0F00D19F
:1025AC00013CB2F80454A402A4B22C4344F40044F9
:1025BC00A2F804444A78002A40F0DE80B0F850209B
:1025CC0002440C7802EB0412B2F80C44C4F3090474
:1025DC00A2F80C443E2B40F2BA805C0913F01F0F9A
:1025EC0000D1013CB2F80C54A3029BB22B4343F430
:1025FC000043A2F80C3462E5E2B9B0F85030034461
:10260C000A7803EB0213B3F80424C2F30902A3F80B
:10261C0004240C693E2C2ED9620914F01F0F00D132
:10262C00013AB3F80444920292B2224342F40042BB
:10263C00A3F804244B78002B47D1B0F85030034456
:10264C000A7803EB0213B3F80C24C2F30902A3F8C3
:10265C000C240C693E2C23D9620914F01F0F00D1F5
:10266C00013AB3F80C44920292B2224342F4004273
:10267C00A3F80C242BE034B9B3F8042442F4004240
:10268C00A3F80424D6E7620814F0010F00D001323D
:10269C00B3F80444920292B22243A3F80424C9E78B
:1026AC0034B9B3F80C2442F40042A3F80C240EE025
:1026BC00620814F0010F00D00132B3F80C449202FE
:1026CC0092B22243A3F80C2401E0012B1CD0CB695D
:1026DC00002B3FF4F4AC0A7830F8223044F240047A
:1026EC002340A34202D0002B7FF4E9AC30F8223017
:1026FC009BB223F4E04323F0700343F4004343F014
:10270C00C00320F82230DAE4B0F8503003440A78E1
:10271C0003EB02130A8AA3F80C24D8E700238B617D
:10272C00234629E733B9B2F8044444F40044A2F830
:10273C0004443FE75C0813F0010F00D00134B2F8F9
:10274C000454A402A4B22C43A2F8044432E733B9D3
:10275C00B2F80C3443F40043A2F80C34AFE45C0838
:10276C0013F0010F00D00134B2F80C54A3029BB249
:10277C002B43A2F80C34A2E4012A7FF4A0ACB0F8ED
:10278C00502002440C7802EB04129BB2A2F80C34D9
:10279C0095E40120A4E430B45D0800EB420202F59C
:1027AC00806245B132F8044BA4B20C70240A4C7010
:1027BC000231013DF5E713F0010F01D013880B70C6
:1027CC0030BC704798B108B50346D0F8B40210B1CC
:1027DC000020C3F8B40209B1C3F8B01218460123A3
:1027EC0080F89C320270FEF76FF8002008BD0220C2
:1027FC00704719B1C0F8B41200207047022070471E
:10280C0008B5FEF7A3F8002008BD08B5D0F8B4321F
:10281C0033B11B68984708B9002008BD0220FCE7BB
:10282C000220FAE708B5D0F8B4325B68984700206C
:10283C0008BD38B5044600F52A75284600F03BF96A
:10284C000123C4F89432B4F8AE32C4F8983294F838
:10285C00A81201F01F03012B0FD05AB23AB1022B70
:10286C0010D001F080012046FEF78BF803E02946DA
:10287C00204600F0CFFA002038BD2946204600F053
:10288C00FDFAF8E72946204600F028FBF3E738B5B7
:10289C000446A9BB1046D4F89432032B03D0052B65
:1028AC0025D0002038E0D4F86031D4F8642193426C
:1028BC000DD99B1AC4F860319A4206D99AB20146D6
:1028CC00204600F052FC002026E092B2F7E7D4F844
:1028DC00B4321B691BB194F89C22032A04D0204605
:1028EC0000F04BFC002017E020469847F7E7002546
:1028FC00C4F8945229462046FEF743F828460BE0CC
:10290C000A46D0F8B4329B693BB190F89C1203296B
:10291C0005D111469847002038BD0220FCE7022063
:10292C00FAE710B50446002954D11046D4F8943275
:10293C00022B0CD0042B00D01BB980212046FEF7B3
:10294C0020F894F8A032012B40D0002010BD236A4F
:10295C00626A93421BD8E169B1FBF2F302FB1313D9
:10296C002BB98A4203D8D4F8983299421DD3D4F8A3
:10297C00B432DB681BB194F89C22032A23D080214B
:10298C002046FDF7FEFF204600F002FCD9E79A1A1C
:10299C00226292B20146204600F0D0FB00231A4678
:1029AC0019462046FEF724F8CBE7002211462046B4
:1029BC0000F0C4FB0021C4F898120B460A462046CE
:1029CC00FEF716F8BDE720469847D8E7002084F8B4
:1029DC00A002BBE70A46D0F8B4325B693BB190F871
:1029EC009C12032905D1114698470020AEE702201E
:1029FC00ACE70220AAE770B504464023002211463A
:102A0C00FDF7ACFF0125C4F858514026C4F86461A9
:102A1C003346002280212046FDF7A0FFA5616662A7
:102A2C0084F89C520023C4F894326360C4F8A43236
:102A3C00D4F8B8322BB1D4F8B4325B6800212046FC
:102A4C009847002070BD01740020704790F89C32AC
:102A5C0080F89D32042380F89C320020704790F857
:102A6C009C32042B01D00020704790F89D3280F8E6
:102A7C009C32F8E708B590F89C32032B01D000206B
:102A8C0008BDD0F8B432DB69002BF8D09847F6E7D4
:102A9C00002302781AB10133DBB20130F9E7184692
:102AAC00704708B54B88012B00D008BDC0F8A43284
:102ABC0000F063FBF9E70B7803704B7843708B786D
:102ACC00CA7803EB022343800B794A7903EB022388
:102ADC0083808B79CA7903EB0223C380704710B5CE
:102AEC0004468021FDF74DFF00212046FDF749FFEC
:102AFC0010BD30B583B005460C460023ADF806304A
:102B0C004A88130A013B062B00F2A480DFE803F08D
:102B1C0004182CA2A2869300D0F8B0321B680DF1D9
:102B2C000601007C9847BDF806201AB1E388002BFB
:102B3C0040F09480E388002B00F09A8003B030BD05
:102B4C00037C43B9D0F8B4329B6A0DF10600984768
:102B5C0002234370E7E7D0F8B432DB6A0DF10600CC
:102B6C00984702234370DEE7D2B2052A52D8DFE839
:102B7C0002F003101D2A3744D0F8B0325B6823B141
:102B8C000DF10601007C9847CDE72146FFF7A7FF22
:102B9C00D4E7D0F8B0329B6823B10DF10601007C6C
:102BAC009847C0E72146FFF79AFFC7E7D0F8B03245
:102BBC00DB6823B10DF10601007C9847B3E7214691
:102BCC00FFF78DFFBAE7D0F8B0321B6923B10DF1D6
:102BDC000601007C9847A6E72146FFF780FFADE78A
:102BEC00D0F8B0325B6923B10DF10601007C984737
:102BFC0099E72146FFF773FFA0E7D0F8B0329B6945
:102C0C0023B10DF10601007C98478CE72146FFF7B4
:102C1C0066FF93E72146FFF762FF8FE7037C33B92A
:102C2C00D0F8B4325B6B0DF1060098477BE7214678
:102C3C00FFF755FF82E7037C43B9D0F8B4321B6B26
:102C4C000DF106009847072343706CE72146FFF708
:102C5C0046FF73E72146FFF742FF6FE79A4228BF12
:102C6C001A46ADF806200146284600F05AFA61E7EC
:102C7C00284600F082FA61E738B504468B88F3B930
:102C8C00CB88E3B94B887F2B19D803F07F0590F8DC
:102C9C009C32032B0CD080F89E522946FDF798FEEF
:102CAC00204600F06AFA35B1022384F89C3209E020
:102CBC00FFF715FF06E0012384F89C3202E0204662
:102CCC00FFF70DFF38BD000038B504460D46897876
:102CDC00284B197001290ED890F89C32022B0ED07B
:102CEC00032B21D02946FFF7FAFE224B19782046F8
:102CFC00FFF798FD02E02946FFF7F1FE38BD81B1E0
:102D0C004160032380F89C32FFF77FFD022803D03B
:102D1C00204600F032FAF1E729462046FFF7DFFEA5
:102D2C00ECE700F02AFAE9E789B1436899421DD033
:102D3C00D9B2FFF777FD0F4B197861602046FFF78A
:102D4C0064FD02280DD0204600F017FAD6E70223C6
:102D5C0080F89C324160FFF765FD204600F00DFACB
:102D6C00CCE729462046FFF7BAFEC7E700F005FA84
:102D7C00C4E700BF2006002008B5CB88012B0CD17E
:102D8C0090F89C325AB29AB1022B09D9032B0FD16D
:102D9C000122011D00F0C5F901E0FFF7A0FE08BDFE
:102DAC000146002341F8083F012200F0BAF9F6E78A
:102DBC00FFF795FEF3E708B590F89C32013B022B28
:102DCC0012D8CB88022B0CD10123C360D0F8A432CB
:102DDC000BB10323C360022200F10C0100F0A1F936
:102DEC0008BDFFF77CFEFBE7FFF779FEF8E708B5B7
:102DFC0090F89C32013B022B09D84B88012B00D058
:102E0C0008BD0023C0F8A43200F0B7F9F8E7FFF7CB
:102E1C0066FEF5E708B50B7803F06003202B05D0B0
:102E2C00402B03D043B1FFF75AFE03E0D0F8B43285
:102E3C009B689847002008BD4B78092B1BD8DFE80E
:102E4C0003F011171A141A08051A0E0BFFF751FE8E
:102E5C00F0E7FFF711FFEDE7FFF736FFEAE7FFF7C3
:102E6C008BFFE7E7FFF7A7FFE4E7FFF71AFEE1E7C1
:102E7C00FFF7BDFFDEE7FFF732FEDBE738B50546AF
:102E8C000C460B7803F06003202B06D0402B04D0AB
:102E9C001BB1FFF724FE002038BD95F89C32013B96
:102EAC00022B16D82379012B0ED8D5F8B4329B6897
:102EBC00214628469847E388002BECD10028EAD11C
:102ECC00284600F05AF9E6E721462846FFF707FEA8
:102EDC00E1E721462846FFF702FEDCE738B5044659
:102EEC008A880B7803F06003202B08D0D0B2402BDB
:102EFC0005D05BB12046FFF7F2FD002005E0D4F8C9
:102F0C00B4329B6820469847002038BD202B13D044
:102F1C004B78012B39D05DB2002D64D0032B40F0DF
:102F2C00DE8094F89C32022B0CD0032B1CD0204654
:102F3C00FFF7D5FD0020E8E7D4F8B4329B682046B3
:102F4C009847E2E708B1802804D12046FFF7C7FD77
:102F5C000020DAE701462046FDF713FD80212046CC
:102F6C00FDF70FFD0020D0E74B8823B918B180285E
:102F7C0001D0CB8823B1204600F0FFF80020C4E735
:102F8C0001462046FDF7FDFCF5E794F89C32022B38
:102F9C0006D0032B16D02046FFF7A1FD0020B4E786
:102FAC0008B1802804D12046FFF799FD0020ACE73A
:102FBC0001462046FDF7E5FC80212046FDF7E1FCAB
:102FCC000020A2E74B88002B40F08E8010F07F0F82
:102FDC0004D1204600F0D1F8002096E701462046A7
:102FEC00FDF7D7FCF5E794F89C32022B06D0032BA7
:102FFC002AD02046FFF773FD002086E708B1802811
:10300C0013D112F0800F15D100F07F0000EB80007F
:10301C00830003F5A8712144043100250D600222C0
:10302C00204600F07EF828466FE72046FFF757FD54
:10303C0000206AE700F07F0000EB8000830003F1C2
:10304C00100121440431E8E752B2002A1FDB00F0E2
:10305C000F0303EB83039D002544D5F8583123B3AC
:10306C00002A27DB00F07F0202EB8202930003F5BB
:10307C00A8752544043508B1802825D100232B6080
:10308C0002222946204600F04CF800203DE700F0D3
:10309C000F0303EB83039D002544AB69002BDFD1A9
:1030AC002046FFF71CFD00202FE72046FFF717FDF9
:1030BC0000202AE700F07F0202EB8202930003F16A
:1030CC00100525440435D6E701462046FDF769FC7A
:1030DC0010B101232B60D3E700232B60D0E72046EF
:1030EC00FFF7FDFC002010E700200EE7C0B170B523
:1030FC000D4616460446FFF7CBFC013040003080ED
:10310C00287003236B700223217841B101345A1CBF
:10311C00D2B2E9540233DBB20021A954F4E770BDFA
:10312C00704710B513460222C0F89422C3610362A3
:10313C000A460021FDF754FC002010BD08B51346CB
:10314C000A460021FDF74CFC002008BD10B51346C3
:10315C000322C0F89422C0F85C31C0F860310A46F2
:10316C000021FDF745FC002010BD08B513460A46AA
:10317C000021FDF73DFC002008BD08B50423C0F874
:10318C00943200231A461946FDF72AFC002008BD8C
:10319C0008B50523C0F8943200231A461946FDF7EA
:1031AC0027FC002008BD002070470020704700005D
:1031BC0038B50446064D0146284600F093F92846DA
:1031CC0000F0B0F92278034B1A70002038BD00BF14
:1031DC0040060020FC03002010B5064C00220649D6
:1031EC00204600F077F90549204600F07BF90020D5
:1031FC0010BD00BF40060020F4110020F40D00208B
:10320C00094BD3F8B832D3F814320BB10120704704
:10321C0010B50A460146044C204600F05BF92046E6
:10322C0000F066F910BD00BF4006002010B5D0F8C4
:10323C00B842D0F8BC325BB194F80002FF2807D03A
:10324C009B6894F8012221469847FF2384F80032AA
:10325C00002010BD4323038000487047A4000020C9
:10326C004323038000487047E80000204323038079
:10327C0000487047380100200A230380004870473B
:10328C002C01002038B50446D0F8B852FDF7B8FB35
:10329C00C5F80C02D4F8B8324BB1D4F8BC32DB68A8
:1032AC0005F50371D5F804029847002038BD0220BB
:1032BC00FCE770B5D0F8B822D0F8C052F2B101EBEF
:1032CC008104A3000344DB694BB101EB8106F400DC
:1032DC002544AD6BB3FBF5F405FB143323B100238C
:1032EC00C2F81432002070BD01EB8102930003443C
:1032FC000022DA611346FDF773FBF3E70220F2E7D5
:10330C0070B582B005460C46D0F8B86200238DF833
:10331C000730ADF804300B7813F0600227D0202A68
:10332C0056D1CA88DAB113F0800F0CD0D0F8BC3269
:10333C009B68314660789847E28831462846FFF70B
:10334C00F0FE002047E04B7886F800328B7986F847
:10335C000132CA883146FFF7F9FE00203BE0D0F875
:10336C00BC329B68002248789847002033E04B78A9
:10337C000A2B14D00B2B21D01BB1FFF7B0FB022072
:10338C0029E090F89C32032B03D0FFF7A8FB022016
:10339C0021E0022201A9FFF7C4FE00201BE090F8F7
:1033AC009C32032B03D0FFF79AFB022013E001227F
:1033BC000DF10701FFF7B5FE00200CE090F89C32F0
:1033CC00032B01D1002006E0FFF789FB022002E06D
:1033DC00FFF785FB022002B070BD38B50446812191
:1033EC00FDF7C7FA0025E56201212046FDF7C1FA79
:1033FC00C4F86C5182212046FDF7BBFA2564D4F841
:10340C00B8324BB1D4F8BC325B689847D4F8B802E8
:10341C00FDF700FBC4F8B852002038BD38B504469F
:10342C00037CABBB4FF4007302228121FDF796FAAB
:10343C000125E5624FF40073022229462046FDF770
:10344C008DFAC4F86C510823032282212046FDF723
:10345C0085FA012323644FF40770FDF7D7FA05466C
:10346C00C4F8B80268B3D4F8BC321B689847002380
:10347C00C5F81432C5F81832237CCBB94FF400735D
:10348C00D5F8042201212046FDF7B2FA002038BD00
:10349C00402302228121FDF761FA0125E5624023D8
:1034AC00022229462046FDF759FAC4F86C51CAE7A6
:1034BC004023D5F8042201212046FDF799FA00207B
:1034CC00E5E70120E3E719B1C0F8BC120020704712
:1034DC0002207047D0F8B832C3F80812C3F8102293
:1034EC0000207047D0F8B832C3F80412002070479F
:1034FC00D0F8B822A2B108B5D2F814320BB1012021
:10350C0008BD0123C2F81432D2F810320363B2F8AA
:10351C001032D2F808228121FDF762FA0020EFE781
:10352C0002207047D0F8B82292B108B5037C43B999
:10353C004FF40073D2F804220121FDF759FA002050
:10354C0008BD4023D2F804220121FDF751FAF6E719
:10355C000220704738B530494B68304A92FAA2F0D5
:10356C00B0FA80F080000F2404FA00F023EA000384
:10357C0092FAA2F4B4FA84F4A400012000FA04F440
:10358C00234392FAA2F4B4FA84F4A400032505FAB6
:10359C0004F423EA040392FAA2F4B4FA84F4A40027
:1035AC0005FA04F4234392FAA2F4B4FA84F4A400C6
:1035BC00042505FA04F423EA040392FAA2F2B2FAFF
:1035CC0082F2920005FA02F213434B60CB6823F4AB
:1035DC00802323F48073124A92FAA2F2B2FA82F296
:1035EC0000FA02F21343CB604FF480734B6100235B
:1035FC00B3F5803F02D200BF0133F9E700F050FD74
:10360C0000F066F800F05AFF064B01221A700648CB
:10361C0001F080FA38BD00BF000801400100010430
:10362C0000010400210600202C5B000810B500F0FE
:10363C0097FC00F053FB00F0F3FE14484FF480733A
:10364C0003614268124B93FAA3F1B1FA81F189003C
:10365C000F2404FA01F122EA010293FAA3F3B3FA5C
:10366C0083F39B00042101FA03F31343436000230B
:10367C00B3F5803F02D200BF0133F9E7054B0022BE
:10368C001A70054801F046FA10BD00BF0008014051
:10369C000100010421060020185B000808B5094848
:1036AC0001F038FA084B4FF400521A610023074A14
:1036BC00934202D800BF0133F9E7034B4FF4005299
:1036CC005A6108BD0C5B0008001001403F420F001E
:1036DC00F0B4FB490B6840F2011292FAA2F0B0FA76
:1036EC0080F080000F2606FA00F023EA000392FA1D
:1036FC00A2F0B0FA80F08000012505FA00F0034337
:10370C0092FAA2F0B0FA80F08000032404FA00F0E0
:10371C0023EA000392FAA2F0B0FA80F0800004FAD7
:10372C0000F0034392FAA2F7B7FA87F7BF00042020
:10373C0000FA07F723EA070392FAA2F240F20222F8
:10374C0092FAA2F7B7FA87F7BF0006FA07F723EA4F
:10375C00070392FAA2F7B7FA87F7BF0005FA07F743
:10376C003B4392FAA2F7B7FA87F7BF0004FA07F7C0
:10377C0023EA070392FAA2F7B7FA87F7BF0004FA15
:10378C0007F73B4392FAA2F7B7FA87F7BF0000FAA4
:10379C0007F723EA070392FAA2F240F2044292FAE4
:1037AC00A2F7B7FA87F7BF0006FA07F723EA070371
:1037BC0092FAA2F7B7FA87F7BF0005FA07F73B436F
:1037CC0092FAA2F7B7FA87F7BF0004FA07F723EAD1
:1037DC00070392FAA2F7B7FA87F7BF0004FA07F7C4
:1037EC003B4392FAA2F7B7FA87F7BF0000FA07F744
:1037FC0023EA070392FAA2F240F6080292FAA2F721
:10380C00B7FA87F7BF0006FA07F723EA070392FA1D
:10381C00A2F7B7FA87F7BF0005FA07F73B4392FA0E
:10382C00A2F7B7FA87F7BF0004FA07F723EA0703F2
:10383C0092FAA2F7B7FA87F7BF0004FA07F73B43EF
:10384C0092FAA2F7B7FA87F7BF0000FA07F723EA54
:10385C00070392FAA2F241F2100292FAA2F7B7FA17
:10386C0087F7BF0006FA07F723EA070392FAA2F7D5
:10387C00B7FA87F7BF0005FA07F73B4392FAA2F7AE
:10388C00B7FA87F7BF0004FA07F723EA070392FA9F
:10389C00A2F7B7FA87F7BF0004FA07F73B4392FA8F
:1038AC00A2F7B7FA87F7BF0000FA07F723EA070376
:1038BC0092FAA2F242F2200292FAA2F7B7FA87F732
:1038CC00BF0006FA07F723EA070392FAA2F7B7FA42
:1038DC0087F7BF0005FA07F73B4392FAA2F7B7FA4E
:1038EC0087F7BF0004FA07F723EA070392FAA2F757
:1038FC00B7FA87F7BF0004FA07F73B4392FAA2F72F
:10390C00B7FA87F7BF0000FA07F723EA070392FA22
:10391C00A2F244F2400292FAA2F7B7FA87F7BF007C
:10392C0006FA07F723EA070392FAA2F7B7FA87F722
:10393C00BF0005FA07F73B4392FAA2F7B7FA87F7ED
:10394C00BF0004FA07F723EA070392FAA2F7B7FAC3
:10395C0087F7BF0004FA07F73B4392FAA2F7B7FACE
:10396C0087F7BF0000FA07F723EA070392FAA2F2DF
:10397C0048F2800292FAA2F7B7FA87F7BF0006FA6C
:10398C0007F723EA070392FAA2F7B7FA87F7BF0003
:10399C0005FA07F73B4392FAA2F7B7FA87F7BF008D
:1039AC0004FA07F723EA070392FAA2F7B7FA87F7A4
:1039BC00BF0004FA07F73B4392FAA2F7B7FA87F76E
:1039CC00BF0000FA07F723EA070392FAA2F20B6092
:1039DC004B683C4F97FAA7F2B2FA82F2920006FAC1
:1039EC0002F223EA020297FAA7F3B3FA83F39B00DD
:1039FC0005FA03F31A4397FAA7F3B3FA83F39B0080
:103A0C0004FA03F322EA030297FAA7F3B3FA83F357
:103A1C009B0004FA03F31A4397FAA7F3B3FA83F360
:103A2C009B0000FA03F322EA030297FAA7F7264B4E
:103A3C0093FAA3F7B7FA87F7BF0006FA07F722EA5B
:103A4C00070293FAA3F7B7FA87F7BF0005FA07F74F
:103A5C003A4393FAA3F7B7FA87F7BF0004FA07F7CC
:103A6C0022EA070293FAA3F7B7FA87F7BF0004FA22
:103A7C0007F73A4393FAA3F7B7FA87F7BF0000FAB0
:103A8C0007F722EA070293FAA3F3104B93FAA3F772
:103A9C00B7FA87F7BF0006FA07F722EA070293FA8C
:103AAC00A3F7B7FA87F7BF0005FA07F73A4393FA7B
:103ABC00A3F7B7FA87F7BF0004FA07F708E000BFCF
:103ACC00000C014001000104020002040400040483
:103ADC0022EA070293FAA3F7B7FA87F7BF0004FAB2
:103AEC0007F73A4393FAA3F7B7FA87F7BF0000FA40
:103AFC0007F722EA070293FAA3F3734B93FAA3F79F
:103B0C00B7FA87F7BF0006FA07F722EA070293FA1B
:103B1C00A3F7B7FA87F7BF0005FA07F73A4393FA0A
:103B2C00A3F7B7FA87F7BF0004FA07F722EA0702F0
:103B3C0093FAA3F7B7FA87F7BF0004FA07F73A43EB
:103B4C0093FAA3F7B7FA87F7BF0000FA07F722EA50
:103B5C00070293FAA3F35D4B93FAA3F7B7FA87F72F
:103B6C00BF0006FA07F722EA070293FAA3F7B7FA9F
:103B7C0087F7BF0005FA07F73A4393FAA3F7B7FAAA
:103B8C0087F7BF0004FA07F722EA070293FAA3F7B4
:103B9C00B7FA87F7BF0004FA07F73A4393FAA3F78B
:103BAC00B7FA87F7BF0000FA07F722EA070293FA81
:103BBC00A3F3474B93FAA3F7B7FA87F7BF0006FABC
:103BCC0007F722EA070293FAA3F7B7FA87F7BF00C1
:103BDC0005FA07F73A4393FAA3F7B7FA87F7BF004A
:103BEC0004FA07F722EA070293FAA3F7B7FA87F762
:103BFC00BF0004FA07F73A4393FAA3F7B7FA87F72B
:103C0C00BF0000FA07F722EA070293FAA3F3314F39
:103C1C0097FAA7F3B3FA83F39B0006FA03F322EAAD
:103C2C00030297FAA7F3B3FA83F39B0005FA03F3A5
:103C3C001A4397FAA7F3B3FA83F39B0004FA03F33E
:103C4C0022EA030297FAA7F3B3FA83F39B0004FA70
:103C5C0003F31A4397FAA7F3B3FA83F39B0000FA22
:103C6C0003F322EA030297FAA7F71B4F97FAA7F37D
:103C7C00B3FA83F39B0006FA03F322EA030397FAE1
:103C8C00A7F2B2FA82F2920095402B4397FAA7F270
:103C9C00B2FA82F2920004FA02F223EA020397FAD1
:103CAC00A7F2B2FA82F292009440234397FAA7F259
:103CBC00B2FA82F29200904023EA000397FAA7F737
:103CCC004B60F0BC704700BF0800080410001004E3
:103CDC0020002004400040048000800430B4974A47
:103CEC00136840F2011191FAA1F4B4FA84F4A4001F
:103CFC000F2000FA04F423EA040391FAA1F4B4FAB5
:103D0C0084F4A400042101FA04F4234340F20224B5
:103D1C0094FAA4F5B5FA85F5AD0000FA05F523EA99
:103D2C00050394FAA4F4B4FA84F4A40001FA04F49C
:103D3C00234340F2044494FAA4F5B5FA85F5AD009A
:103D4C0000FA05F523EA050394FAA4F4B4FA84F412
:103D5C00A40001FA04F4234340F6080494FAA4F5F1
:103D6C00B5FA85F5AD0000FA05F523EA050394FADA
:103D7C00A4F4B4FA84F4A40001FA04F4234341F249
:103D8C00100494FAA4F5B5FA85F5AD0000FA05F522
:103D9C0023EA050394FAA4F4B4FA84F4A40001FA17
:103DAC0004F4234342F2200494FAA4F5B5FA85F501
:103DBC00AD0000FA05F523EA050394FAA4F4B4FA6D
:103DCC0084F4A40001FA04F4234344F2400494FA6A
:103DDC00A4F5B5FA85F5AD0000FA05F523EA05035F
:103DEC0094FAA4F4B4FA84F4A40001FA04F423437E
:103DFC0048F2800494FAA4F5B5FA85F5AD0000FA02
:103E0C0005F523EA050394FAA4F4B4FA84F4A400A7
:103E1C0001FA04F4234313605368494C94FAA4F553
:103E2C00B5FA85F5AD0000FA05F523EA050394FA19
:103E3C00A4F4B4FA84F4A40001FA04F42343414C2E
:103E4C0094FAA4F5B5FA85F5AD0000FA05F523EA68
:103E5C00050394FAA4F4B4FA84F4A40001FA04F46B
:103E6C002343394C94FAA4F5B5FA85F5AD0000FA64
:103E7C0005F523EA050394FAA4F4B4FA84F4A40037
:103E8C0001FA04F42343314C94FAA4F5B5FA85F500
:103E9C00AD0000FA05F523EA050394FAA4F4B4FA8C
:103EAC0084F4A40001FA04F42343294C94FAA4F5F5
:103EBC00B5FA85F5AD0000FA05F523EA050394FA89
:103ECC00A4F4B4FA84F4A40001FA04F42343214CBE
:103EDC0094FAA4F5B5FA85F5AD0000FA05F523EAD8
:103EEC00050394FAA4F4B4FA84F4A40001FA04F4DB
:103EFC002343194C94FAA4F5B5FA85F5AD0000FAF4
:103F0C0005F523EA050394FAA4F4B4FA84F4A400A6
:103F1C0001FA04F42343114C94FAA4F5B5FA85F58F
:103F2C00AD00A84023EA000394FAA4F4B4FA84F494
:103F3C00A400A1400B43536030BC7047000C0140FF
:103F4C000100010402000204040004040800080437
:103F5C001000100420002004400040048000800465
:103F6C0030B44E4A136840F2011191FAA1F4B4FA3C
:103F7C0084F4A4000F2000FA04F423EA040391FA59
:103F8C00A1F4B4FA84F4A400042101FA04F4234348
:103F9C0040F2022494FAA4F5B5FA85F5AD0000FAC6
:103FAC0005F523EA050394FAA4F4B4FA84F4A40006
:103FBC0001FA04F4234340F2044494FAA4F5B5FA4C
:103FCC0085F5AD0000FA05F523EA050394FAA4F48F
:103FDC00B4FA84F4A40001FA04F4234340F6080470
:103FEC0094FAA4F5B5FA85F5AD0000FA05F523EAC7
:103FFC00050394FAA4F4B4FA84F4A40001FA04F4CA
:10400C00234341F2100494FAA4F5B5FA85F5AD00FA
:10401C0000FA05F523EA050394FAA4F4B4FA84F43F
:10402C00A40001FA04F4234342F2200494FAA4F508
:10403C00B5FA85F5AD0000FA05F523EA050394FA07
:10404C00A4F4B4FA84F4A40001FA04F4234344F273
:10405C00400494FAA4F5B5FA85F5AD0000FA05F51F
:10406C0023EA050394FAA4F4B4FA84F4A40001FA44
:10407C0004F4234348F2800494FAA4F5B5FA85F5C8
:10408C00AD00A84023EA000394FAA4F4B4FA84F433
:10409C00A400A1400B43136030BC704700080140E2
:1040AC00F0B4DE490B6840F2011797FAA7F2B2FAA6
:1040BC0082F292000F2606FA02F223EA020297FA23
:1040CC00A7F3B3FA83F39B00012505FA03F31A4314
:1040DC0097FAA7F3B3FA83F39B00032404FA03F3D0
:1040EC0022EA030297FAA7F3B3FA83F39B0004FACC
:1040FC0003F31A4397FAA7F3B3FA83F39B00042054
:10410C0000FA03F322EA030297FAA7F7B7FA87F744
:10411C00BF0000FA07F73A430D6140F2022393FA0D
:10412C00A3F7B7FA87F7BF0006FA07F722EA0702E8
:10413C0093FAA3F7B7FA87F7BF0005FA07F73A43E4
:10414C0093FAA3F7B7FA87F7BF0004FA07F722EA46
:10415C00070293FAA3F7B7FA87F7BF0004FA07F739
:10416C003A4393FAA3F7B7FA87F7BF0000FA07F7B9
:10417C0022EA070293FAA3F3B3FA83F39B0000FA43
:10418C0003F31A4302230B6140F2044393FAA3F79F
:10419C00B7FA87F7BF0006FA07F722EA070293FA85
:1041AC00A3F7B7FA87F7BF0005FA07F73A4393FA74
:1041BC00A3F7B7FA87F7BF0004FA07F722EA07025A
:1041CC0093FAA3F7B7FA87F7BF0004FA07F73A4355
:1041DC0093FAA3F7B7FA87F7BF0000FA07F722EABA
:1041EC00070293FAA3F3B3FA83F39B0000FA03F3E9
:1041FC001A43086140F6080393FAA3F7B7FA87F756
:10420C00BF0006FA07F722EA070293FAA3F7B7FAF8
:10421C0087F7BF0005FA07F73A4393FAA3F7B7FA03
:10422C0087F7BF0004FA07F722EA070293FAA3F70D
:10423C00B7FA87F7BF0004FA07F73A4393FAA3F7E4
:10424C00B7FA87F7BF0000FA07F722EA070293FADA
:10425C00A3F3B3FA83F39B0000FA03F31A43082386
:10426C000B6141F2100393FAA3F7B7FA87F7BF007B
:10427C0006FA07F722EA070293FAA3F7B7FA87F7C9
:10428C00BF0005FA07F73A4393FAA3F7B7FA87F793
:10429C00BF0004FA07F722EA070293FAA3F7B7FA6A
:1042AC0087F7BF0004FA07F73A4393FAA3F7B7FA74
:1042BC0087F7BF0000FA07F722EA070293FAA3F385
:1042CC00B3FA83F39B0000FA03F31A4310230B6138
:1042DC0042F2200393FAA3F7B7FA87F7BF0006FA66
:1042EC0007F722EA070293FAA3F7B7FA87F7BF009A
:1042FC0005FA07F73A4393FAA3F7B7FA87F7BF0023
:10430C0004FA07F722EA070293FAA3F7B7FA87F73A
:10431C00BF0004FA07F73A4393FAA3F7B7FA87F703
:10432C00BF0000FA07F722EA070293FAA3F3B3FAE5
:10433C0083F39B0000FA03F31A4320230B6144F22E
:10434C00400797FAA7F3B3FA83F39B0006FA03F33B
:10435C0022EA030297FAA7F3B3FA83F39B0005FA58
:10436C0003F31A4397FAA7F3B3FA83F39B0004FA07
:10437C0003F322EA030297FAA7F3B3FA83F39B0041
:10438C0004FA03F31A4397FAA7F3B3FA83F39B00E7
:10439C0000FA03F322EA030297FAA7F3B3FA83F3C2
:1043AC009B0000FA03F31A4340230B6148F2800789
:1043BC0097FAA7F3B3FA83F39B0006FA03F322EA06
:1043CC00030397FAA7F2B2FA82F2920095402B43BC
:1043DC0097FAA7F2B2FA82F2920004FA02F223EAF6
:1043EC00020397FAA7F2B2FA82F2920094402343A6
:1043FC0097FAA7F2B2FA82F2920000FA02F223EADA
:10440C00020397FAA7F7B7FA87F7BF00B840034340
:10441C000B6080230B61F0BC704700BF00080140AB
:10442C0030B422494FF400730B614B68204A92FA66
:10443C00A2F4B4FA84F4A4000F2000FA04F423EAE2
:10444C00040392FAA2F2B2FA82F29200042404FA61
:10445C0002F24FF480650D611343164A92FAA2F5ED
:10446C00B5FA85F5AD0000FA05F523EA050392FAD5
:10447C00A2F2B2FA82F2920004FA02F24FF4004570
:10448C000D6113430C4A92FAA2F5B5FA85F5AD000D
:10449C00A84023EA000392FAA2F2B2FA82F2920046
:1044AC00944023434B6030BC704700BF0008014070
:1044BC00020002040400040480008004F0B44C499F
:1044CC004B684C4F97FAA7F2B2FA82F292000F2681
:1044DC0006FA02F223EA020297FAA7F3B3FA83F37D
:1044EC009B00012505FA03F31A4397FAA7F3B3FAD5
:1044FC0083F39B00032404FA03F322EA030297FAE2
:10450C00A7F3B3FA83F39B0004FA03F31A4397FA65
:10451C00A7F3B3FA83F39B00042000FA03F322EA17
:10452C00030297FAA7F74FF400730B61324F97FA17
:10453C00A7F3B3FA83F39B0006FA03F322EA030210
:10454C0097FAA7F3B3FA83F39B0005FA03F31A4324
:10455C0097FAA7F3B3FA83F39B0004FA03F322EA66
:10456C00030297FAA7F3B3FA83F39B0004FA03F35D
:10457C001A4397FAA7F3B3FA83F39B0000FA03F3F9
:10458C0022EA030397FAA7F74FF480620A611B4AE9
:10459C0092FAA2F7B7FA87F7BF00BE4023EA0603E8
:1045AC0092FAA2F6B6FA86F6B600B5402B4392FA0A
:1045BC00A2F5B5FA85F5AD0004FA05F523EA050375
:1045CC0092FAA2F5B5FA85F5AD00AC40234392FA08
:1045DC00A2F4B4FA84F4A400A04023EA000392FAF3
:1045EC00A2F24B604FF400430B61F0BC704700BF6C
:1045FC00000801400200020404000404800080044E
:10460C0070B5294B1B7823B1284800F083FA00249D
:10461C0011E0FEF79FFFF7E72146254800F0F4F97B
:10462C0023E03146224800F0EFF930E000F06AF95F
:10463C0030E00134A4B2B4F5007F32D8204600F04B
:10464C0015F905462646024621461A4800F0DCF9C3
:10465C000021204600F0C2F8204600F007F900289F
:10466C00DAD02146144800F0CFF92946204600F054
:10467C00B5F82A463146114800F0C6F9204600F03C
:10468C00F5F8A842CDD031460B4800F0BDF914F036
:10469C001F0FCBD00023B3F5205FCAD200BF01336C
:1046AC00F9E7FEF7C3FF70BD21060020A85B0008E8
:1046BC00E05B0008B45B0008CC5B0008F05B000812
:1046CC0038B5134B1B780BB100240EE0FEF742FFFC
:1046DC00FAE721460F4800F097F900F013F9294644
:1046EC000D4800F091F90134A4B2B4F5007F07D263
:1046FC00204600F0BBF8054614F00F0FEFD1E8E7A9
:10470C00064800F007FA00F0FDF8FEF78FFF38BD01
:10471C00210600207C5B0008885B0008B05B000869
:10472C0038B5144B1B780BB100240EE0FEF712FFCA
:10473C00FAE72146104800F067F900F0E3F8294643
:10474C000E4800F061F90134A4B2B4F5007F08D230
:10475C00E5B22946204600F041F814F00F0FEED1D7
:10476C00E7E7074800F0D6F900F0CCF8FEF75EFF5B
:10477C0038BD00BF210600207C5B0008885B000868
:10478C00905B000810B5124B1B780BB1002408E0AD
:10479C00FEF7E0FEFAE721460E4800F035F9013449
:1047AC00A4B248F211039C4209D80021204600F023
:1047BC0015F8204600F05AF80028F0D0EBE7064830
:1047CC0000F0A8F900F09EF8FEF730FF10BD00BF16
:1047DC0021060020505B0008685B0008204B1B780A
:1047EC00002B3BD01F4B4FF480621A61002301E079
:1047FC0000BF0133092BFBD91B4BD860002301E010
:10480C0000BF0133092BFBD9164B4FF400425A6100
:10481C00002301E000BF0133092BFBD9114B4FF4EE
:10482C0000725A61002301E000BF0133092BFBD950
:10483C000C4BD960002301E000BF0133632BFBD983
:10484C00084B4FF400721A61002301E000BF0133E2
:10485C00092BFBD9034B4FF400421A61704700BF80
:10486C002106002000080140000C01400246194BB3
:10487C001B7803F0FF005BB3174B4FF40071196109
:10488C00002301E000BF0133092BFBD9134BDA6085
:10489C00002301E000BF0133092BFBD90E4B4FF471
:1048AC0000425A61002301E000BF0133092BFBD900
:1048BC00094B4FF480625A61002301E000BF0133C1
:1048CC00092BFBD9044B9868C0B24FF400421A6113
:1048DC00704700BF2106002000080140000C014079
:1048EC0078B1F8B50E4615460746002406E0A01927
:1048FC0080B2FFF7BBFF38550134A4B2AC42F6D1FD
:10490C00F8BD704708B5084B1B6803B908BD064BCA
:10491C00196889B20548FEF773FC0028F6D1024BE2
:10492C0000221A60F2E700BF24060020F4150020D4
:10493C00F0B40023CE18CC5C64B193420ADA013394
:10494C00064D2C68671C2F60C4F30C043678044D9C
:10495C002E55EFE71046F0BC704700BF2406002030
:10496C00F4150020FBF710FD0B480C490C4A0023F2
:10497C0002E0D458C4500433C4188C42F9D3094A09
:10498C00094C002301E013600432A242FBD300F077
:10499C000FF8FBF76BFC704700000020E0010020D3
:1049AC00A85C0008E0010020F4350020FEE70000C0
:1049BC0070B500260C4D0D4C641BA410A64209D1F9
:1049CC0001F062F800260A4D0A4C641BA410A642A2
:1049DC0005D170BD55F8043B98470136EEE755F804
:1049EC00043B98470136F2E7A05C0008A05C000885
:1049FC00A05C0008A45C000803460244934200D16A
:104A0C00704703F8011BF9E70FB40A4B13B51C6888
:104A1C0024B1A36913B9204600F05AFA05AB20461D
:104A2C00049AA168019300F05DFC02B0BDE810404F
:104A3C0004B070477C01002070B50E46054618B1D5
:104A4C0083690BB900F044FAAB69AC6813B928461A
:104A5C0000F03EFA2C4B9C4220D16C68636EDB0755
:104A6C0005D4A389980502D4A06D00F0CFFAA389D0
:104A7C0019071DD52369DBB1013EA36816F8011F88
:104A8C00013BA36039BB002B38DA22460A212846A9
:104A9C0000F048F8013011D00A2511E01B4B9C4264
:104AAC0001D1AC68DAE71A4B9C4208BFEC68D5E739
:104ABC002146284600F088F80028DDD04FF0FF355D
:104ACC00636EDA0705D4A3899B0502D4A06D00F0B0
:104ADC009EFA284670BD002B04DAA2699A4206DCC5
:104AEC000A2904D023685A1C22601970C5E7224693
:104AFC00284600F017F80130BFD1DFE70A252368FC
:104B0C005A1C22601D70DBE72C5C00084C5C000812
:104B1C000C5C0008024B01461868FFF78DBF00BF04
:104B2C007C010020F8B50E461446054618B1836981
:104B3C000BB900F0CDF9214B9C422BD16C68A369C9
:104B4C00A360A3891A072FD523696BB32369206847
:104B5C00F6B2C01A63693746834204DC2146284604
:104B6C0000F022F930BBA3680130013BA36023683D
:104B7C005A1C22601E706369834204D0A389DB0730
:104B8C0006D50A2E04D12146284600F00DF988B925
:104B9C003846F8BD0A4B9C4201D1AC68CFE7094BB3
:104BAC009C4208BFEC68CAE72146284600F00CF886
:104BBC000028CBD04FF0FF37EAE700BF2C5C000891
:104BCC004C5C00080C5C0008324B70B51D68064646
:104BDC000C4625B1AB6913B9284600F079F92E4B78
:104BEC009C420FD16C68A389B4F90C2019072CD402
:104BFC00DD0611D40923336042F040034FF0FF303F
:104C0C00A3813EE0254B9C4201D1AC68EBE7244BE1
:104C1C009C4208BFEC68E6E7580712D5616B41B1BE
:104C2C0004F14403994202D0304600F057FA0023B5
:104C3C006363A38923F02403A381002363602369A6
:104C4C002360A38943F00803A38123694BB9A3898B
:104C5C0003F42073B3F5007F03D02146304600F0F7
:104C6C00FDF9A089B4F90C2010F001030AD000233F
:104C7C00A36063695B42A361236943B910F08000B0
:104C8C00BAD170BD810758BF6369A360F4E70020F7
:104C9C00F7E700BF7C0100202C5C00084C5C00088E
:104CAC000C5C00088A89F8B5054610070C4657D4E9
:104CBC004B68002B04DC0B6C002B01DC0020F8BDD6
:104CCC00E66A002EFAD0002312F480522F682B6073
:104CDC0032D0606DA3895A0705D56368C01A636B1F
:104CEC000BB1236CC01A00230246E66A2846216ADF
:104CFC00B047431CA38906D129681D292CD8294A01
:104D0C00CA40D60728D5002262602269D9042260E5
:104D1C0004D5421C01D12B6803B96065616B2F600F
:104D2C000029CBD004F14403994202D0284600F06C
:104D3C00D5F900206063C2E7216A01232846B047F9
:104D4C00411CC7D12B68002BC4D01D2B01D0162BB6
:104D5C0001D12F60B2E7A38943F04003A381AEE7F2
:104D6C000F69002FAAD0930718BF00230E6808BF45
:104D7C004B69F61B0F608B60002E9FDD33463A4665
:104D8C002846216AD4F828C0E047002806DCA3890D
:104D9C004FF0FF3043F04003A38190E70744361AED
:104DAC00EAE700BF0100402038B50B6905460C4608
:104DBC0013B90025284638BD18B183690BB900F02A
:104DCC0087F8144B9C421BD16C68B4F90C30002B47
:104DDC00EFD0626ED00704D4990502D4A06D00F018
:104DEC0015F928462146FFF75DFF636E0546DA0785
:104DFC00E0D4A3899B05DDD4A06D00F008F9D9E7B8
:104E0C00054B9C4201D1AC68DFE7044B9C4208BFC8
:104E1C00EC68DAE72C5C00084C5C00080C5C0008C1
:104E2C00002310B50446C0E90033C0E904338360A5
:104E3C0081814366C2818361194608225C30FFF789
:104E4C00DBFD054B24626362044BA362044BE362FB
:104E5C00044B236310BD00BF9D580008BF580008C9
:104E6C00F75800081B590008014900F0AFB800BF03
:104E7C00B54D0008682270B54D1E55430E4605F120
:104E8C00740100F093F9044640B10021C0E900160A
:104E9C000C30A06005F16802FFF7AEFD204670BD36
:104EAC00014800F0B3B800BF29060020014800F00B
:104EBC00AEB800BF29060020014800F0A7B800BF1B
:104ECC002A060020014800F0A2B800BF2A060020E4
:104EDC0010B50446FFF7F0FFA3691BB1BDE8104005
:104EEC00FFF7F0BFC4E912332365134B134A1B6859
:104EFC00A262A34208BF0123204608BFA36100F0B1
:104F0C001FF86060204600F01BF8A060204600F0FF
:104F1C0017F800220421E0606068FFF781FF01228E
:104F2C000921A068FFF77CFF02221221E068FFF73D
:104F3C0077FF0123A361D1E7085C0008754E0008D8
:104F4C00F8B50746FFF7ACFF1E4B1E68B36913B9E3
:104F5C003046FFF7BDFF4836D6E90134013B03D597
:104F6C0033680BB33668F7E7B4F90C50D5B9164B68
:104F7C0004F15800E360656600F047F8FFF796FF10
:104F8C0008222946C4E90155C4E904552560A561E8
:104F9C0004F15C00FFF730FDC4E90D55C4E912556E
:104FAC002046F8BD6834D9E704213846FFF762FF84
:104FBC00044630600028D5D1FFF778FF0C233B6006
:104FCC00EEE700BF085C00080100FFFF2DE9F84385
:104FDC0006468846002700F14804D4E90195B9F14A
:104FEC00010905D52468002CF7D13846BDE8F883B3
:104FFC00AB89012B07D9B5F90E30013303D0294603
:10500C003046C04707436835E9E77047704770473B
:10501C0070B50E46B1F90E10144600291D4696B017
:10502C0008DA0022B6F90C302A601A0610D44FF4B4
:10503C0080630EE06A4600F091FC0028F1DB019AD7
:10504C0002F47042A2F500535A425A412A60EEE72C
:10505C0040230020236016B070BD00008B8973B50F
:10506C009D0706460C4607D504F1470323602361D0
:10507C000123636102B070BD6A4601ABFFF7C8FF44
:10508C0000990546304600F091F848B9B4F90C3057
:10509C009A05EFD423F0030343F00203A381E3E763
:1050AC000D4BB362A389206043F08003A381009B66
:1050BC0020616361019B5BB13046B4F90E1000F0C6
:1050CC005FFC28B1A38923F0030343F00103A38100
:1050DC00A0890543A581CDE7754E000838B5054676
:1050EC00002940D051F8043C0C1F002BB8BFE41829
:1050FC0000F076FC1C4A136833B9636014602846D0
:10510C00BDE8384000F072BCA34208D920682118D1
:10511C008B4201BF19685B6809182160EDE71A46DC
:10512C005B680BB1A342FAD911685018A0420BD19D
:10513C0020680144501883421160E0D118685B6804
:10514C00014411605360DAE702D90C232B60D6E7D7
:10515C00206821188B4201BF19685B68091821600F
:10516C0063605460CBE738BD2C06002070B50E4E42
:10517C000C463168054611B900F07AFB30602146C7
:10518C00284600F075FB431C0AD0C41C24F0030411
:10519C00A04207D0211A284600F06AFB013001D149
:1051AC004FF0FF34204670BD300600202DE9F04151
:1051BC00CD1C25F0030508350C2D38BF0C25002D12
:1051CC00074601DBA94205D90C2300263B6030467B
:1051DC00BDE8F0812E4E00F003FC33681C4634BB56
:1051EC0029463846FFF7C2FF431C04464DD13468AC
:1051FC002646002E40D123683146384604EB03087E
:10520C0000F036FB80453AD1216803356D1A25F044
:10521C00030508350C2D38BF0C2538462946FFF7F9
:10522C00A5FF01302BD023682B4423600EE02268AD
:10523C00521B1ED40B2A16D96119A342256018BF24
:10524C005960636808BF316062514B60384604F1A5
:10525C000B0600F0CBFB26F00706231DF21AB6D086
:10526C009B1BA350B3E76268A3420CBF32605A6029
:10527C00ECE723466468B2E734467668B9E70C235A
:10528C0038463B6000F0B2FBA1E72560DEE700BFCB
:10529C002C060020936810B4013B002B936007DAB6
:1052AC009469A34201DB0A2902D110BCFFF73ABC76
:1052BC001368581C10601970084610BC7047F8B57C
:1052CC0006460F461446D518AC4201D1002007E023
:1052DC003A46304614F8011BFFF7DCFF431CF3D1B0
:1052EC00F8BD00002DE9F04F0D46144698460646D1
:1052FC009DB018B183690BB9FFF7EAFD894B9D424C
:10530C001BD175686B6ED90705D4AB899A0502D48D
:10531C00A86DFFF77BFEAB891B0701D52B69EBB999
:10532C0029463046FFF750FCC0B16B6EDC070ED53A
:10533C004FF0FF301DB0BDE8F08F7B4B9D4201D18B
:10534C00B568DFE7794B9D4208BFF568DAE7AB89B2
:10535C009805EDD4A86DFFF75AFEE9E700230993F1
:10536C0020238DF8293030234FF00109CDF80C8023
:10537C00DFF8BC818DF82A3023469A4613F8012BAE
:10538C000AB1252AF9D1BAEB040B0BD05B462246A5
:10539C0029463046FFF793FF013000F0AA80099AA6
:1053AC005A4409929AF80030002B00F0A280002396
:1053BC004FF0FF32CDE905230AF1010A049307935C
:1053CC008DF853301A935446052214F8011B584893
:1053DC0000F0F8FA049AD8B9D10644BF20238DF80E
:1053EC005330130744BF2B238DF853309AF80030F9
:1053FC002A2B15D0544600204FF00A0C079A214650
:10540C0011F8013B303B092B4ED9B0B1079214E097
:10541C00A0EB080309FA03F31343A2460493D2E763
:10542C00039B191D1B680391002BBBBF5B4242F011
:10543C00020207930793B8BF049223782E2B0CD14A
:10544C0063782A2B35D1039B02341A1D1B680392F7
:10545C00002BB8BF4FF0FF330593DFF8D8A0032221
:10546C005046217800F0AEFA40B14023A0EB0A0080
:10547C0003FA00F0049B01340343049314F8011B5A
:10548C0006222D488DF8281000F09CFA00283FD0F9
:10549C002A4B1BBB039B073323F0070308330393EF
:1054AC00099B3B44099367E70C4601200CFB023235
:1054BC00A5E700234FF00A0C19460134059320464A
:1054CC0010F8012B303A092A03D9002BC5D00591CD
:1054DC00C3E7044601230CFB0121F0E703AB009367
:1054EC002A463046164B04A9AFF300800746781CB9
:1054FC00D6D16B6ED90705D4AB899A0502D4A86DA9
:10550C00FFF785FDAB895B063FF512AF099811E7F4
:10551C0003AB00932A463046094B04A900F082F8ED
:10552C00E4E700BF2C5C00084C5C00080C5C000835
:10553C006C5C0008725C0008765C000800000000DF
:10554C00CB5200082DE9F047164699468A680B693C
:10555C0007469342B8BF1346336091F843200C467C
:10556C00DDF820800AB1013333602368990642BF0D
:10557C00336802333360256815F0060506D104F153
:10558C00190AE36832689B1AAB4228DC94F8432072
:10559C00131E226818BF012392062DD449463846A3
:1055AC0004F14302C047013020D02368E56803F0C2
:1055BC000603042B18BF002532684FF00006A368C1
:1055CC0008BFAD1A226908BF25EAE5759342C4BF2E
:1055DC009B1AED181A34B5421AD1002008E00123A9
:1055EC00524649463846C047013003D14FF0FF3090
:1055FC00BDE8F0870135C4E73020E11881F843009D
:10560C005A1C94F845102244023382F84310C5E723
:10561C000123224649463846C0470130E6D00136C0
:10562C00D9E700002DE9FF470F7E9146782F804681
:10563C000C469A460C9D01F1430207D8622F0AD8FA
:10564C00002F00F0D980582F00F0A48004F14205FF
:10565C0084F842703AE0A7F16303152BF6D801A148
:10566C0051F823F0C9560008DD56000859560008B9
:10567C00595600085956000859560008DD560008BE
:10568C005956000859560008595600085956000832
:10569C00EB5700080D570008CD5700085956000865
:1056AC00595600080D580008595600080D570008A7
:1056BC005956000859560008D55700082B681A1D72
:1056CC001B682A6004F1420584F842300123A4E0EF
:1056DC0020682968060601F104030AD50E682B60C0
:1056EC00002E03DA2D23764284F843300A235E48D9
:1056FC0019E00E6810F0400F2B6018BF36B2EFE7C0
:10570C002B682068191D2960010601D51E6802E06E
:10571C004606FBD51E886F2F0CBF08230A23524860
:10572C00002184F843106568002DA8BF2168A5608E
:10573C00A4BF21F0040121600EB9002D4DD01546F7
:10574C00B6FBF3F103FB1167C75D05F8017D374626
:10575C00BB420E46F4D9082B0BD12368DE0708D5C3
:10576C00236961689942DEBF302305F8013C05F1DD
:10577C00FF35521B22614B4621464046CDF800A016
:10578C0003AAFFF7DFFE01304CD14FF0FF3004B01D
:10579C00BDE8F087344881F845702968236851F8D2
:1057AC00046B29601D0614D5DF0744BF43F02003AA
:1057BC0023601EB9236823F0200323601023AFE776
:1057CC00236843F0200323607823284884F845306D
:1057DC00E3E7590648BFB6B2E6E71546BBE72B68C8
:1057EC002668181D6169286035061B6801D519608B
:1057FC0002E07006FBD51980002315462361BAE739
:10580C002B6800211A1D2A601D686268284600F06A
:10581C00D9F808B1401B606063682361002384F8E9
:10582C004330A8E72A46494640462369D047013011
:10583C00ABD023689B0713D4E068039B9842B8BF96
:10584C001846A4E70123324649464046D04701306A
:10585C009BD00135E36803995B1AAB42F2DCEBE7B2
:10586C00002504F11906F5E77D5C00088E5C000844
:10587C0038B50023054D044608462B6000F0F6F8B9
:10588C00431C02D12B6803B1236038BD34060020C1
:10589C0010B50C46B1F90E1000F0AEF80028ABBFF5
:1058AC00636DA3891B1823F48053ACBF6365A3817C
:1058BC0010BD2DE9F0411F468B890546DB050C46D2
:1058CC00164605D502230022B1F90E1000F068F837
:1058DC00A389324623F48053A38128463B46B4F96E
:1058EC000E10BDE8F04100F017B810B50C46B1F938
:1058FC000E1000F055F8431CA38915BF606523F406
:10590C00805343F48053A38118BFA38110BDB1F918
:10591C000E1000F013B8000038B5044608461146C6
:10592C000022054D2A601A46FFF702F8431C02D1EB
:10593C002B6803B1236038BD3406002038B5002332
:10594C00054D044608462B6000F068F8431C02D154
:10595C002B6803B1236038BD3406002038B5002312
:10596C00064D0446084611462B6000F05FF8431CB8
:10597C0002D12B6803B1236038BD00BF3406002070
:10598C0038B50023054D044608462B6000F056F848
:10599C00431C02D12B6803B1236038BD34060020B0
:1059AC0038B50446084611460022054D2A601A46B1
:1059BC0000F04CF8431C02D12B6803B1236038BDB6
:1059CC0034060020034610B5C9B20244934218466F
:1059DC0001D1002003E0047801338C42F6D110BDD4
:1059EC000148FFF713BB00BF280600200148FFF752
:1059FC000EBB00BF2806002038B5044608461146E9
:105A0C000022054D2A601A4600F028F8431C02D1EA
:105A1C002B6803B1236038BD340600205822024B9A
:105A2C004FF0FF301A607047340600205822024BAA
:105A3C004FF0FF301A607047340600205822024B9A
:105A4C0000201A60704700BF340600205822024B19
:105A5C004FF0FF301A607047340600205822024B7A
:105A6C004FF0FF301A60704734060020044A054995
:105A7C001368002B08BF0B4618441060184670477B
:105A8C0038060020F8350020F8B500BFF8BC08BC7B
:105A9C009E467047F8B500BFF8BC08BC9E467047E0
:105AAC00556E6B6E6F776E20636D640D0000000099
:105ABC0050726F672073746172740D0043444320FD
:105ACC00436F6E666967000043444320496E7465FA
